{
  "contractName": "GANft",
  "abi": [
    {
      "inputs": [
        {
          "internalType": "string",
          "name": "name_",
          "type": "string"
        },
        {
          "internalType": "string",
          "name": "symbol_",
          "type": "string"
        },
        {
          "internalType": "string",
          "name": "uri_",
          "type": "string"
        },
        {
          "internalType": "uint8",
          "name": "maxId_",
          "type": "uint8"
        },
        {
          "internalType": "uint256[]",
          "name": "mintCostPerTokenId_",
          "type": "uint256[]"
        }
      ],
      "stateMutability": "nonpayable",
      "type": "constructor"
    },
    {
      "anonymous": false,
      "inputs": [
        {
          "indexed": true,
          "internalType": "address",
          "name": "account",
          "type": "address"
        },
        {
          "indexed": true,
          "internalType": "address",
          "name": "operator",
          "type": "address"
        },
        {
          "indexed": false,
          "internalType": "bool",
          "name": "approved",
          "type": "bool"
        }
      ],
      "name": "ApprovalForAll",
      "type": "event"
    },
    {
      "anonymous": false,
      "inputs": [
        {
          "indexed": true,
          "internalType": "address",
          "name": "account",
          "type": "address"
        },
        {
          "indexed": true,
          "internalType": "uint256",
          "name": "tokenId",
          "type": "uint256"
        },
        {
          "indexed": true,
          "internalType": "uint256",
          "name": "amount",
          "type": "uint256"
        }
      ],
      "name": "Minted",
      "type": "event"
    },
    {
      "anonymous": false,
      "inputs": [
        {
          "indexed": true,
          "internalType": "address",
          "name": "previousOwner",
          "type": "address"
        },
        {
          "indexed": true,
          "internalType": "address",
          "name": "newOwner",
          "type": "address"
        }
      ],
      "name": "OwnershipTransferred",
      "type": "event"
    },
    {
      "anonymous": false,
      "inputs": [
        {
          "indexed": false,
          "internalType": "address",
          "name": "account",
          "type": "address"
        }
      ],
      "name": "Paused",
      "type": "event"
    },
    {
      "anonymous": false,
      "inputs": [
        {
          "indexed": true,
          "internalType": "address",
          "name": "operator",
          "type": "address"
        },
        {
          "indexed": true,
          "internalType": "address",
          "name": "from",
          "type": "address"
        },
        {
          "indexed": true,
          "internalType": "address",
          "name": "to",
          "type": "address"
        },
        {
          "indexed": false,
          "internalType": "uint256[]",
          "name": "ids",
          "type": "uint256[]"
        },
        {
          "indexed": false,
          "internalType": "uint256[]",
          "name": "values",
          "type": "uint256[]"
        }
      ],
      "name": "TransferBatch",
      "type": "event"
    },
    {
      "anonymous": false,
      "inputs": [
        {
          "indexed": true,
          "internalType": "address",
          "name": "operator",
          "type": "address"
        },
        {
          "indexed": true,
          "internalType": "address",
          "name": "from",
          "type": "address"
        },
        {
          "indexed": true,
          "internalType": "address",
          "name": "to",
          "type": "address"
        },
        {
          "indexed": false,
          "internalType": "uint256",
          "name": "id",
          "type": "uint256"
        },
        {
          "indexed": false,
          "internalType": "uint256",
          "name": "value",
          "type": "uint256"
        }
      ],
      "name": "TransferSingle",
      "type": "event"
    },
    {
      "anonymous": false,
      "inputs": [
        {
          "indexed": false,
          "internalType": "string",
          "name": "value",
          "type": "string"
        },
        {
          "indexed": true,
          "internalType": "uint256",
          "name": "id",
          "type": "uint256"
        }
      ],
      "name": "URI",
      "type": "event"
    },
    {
      "anonymous": false,
      "inputs": [
        {
          "indexed": false,
          "internalType": "address",
          "name": "account",
          "type": "address"
        }
      ],
      "name": "Unpaused",
      "type": "event"
    },
    {
      "inputs": [
        {
          "internalType": "address",
          "name": "account",
          "type": "address"
        },
        {
          "internalType": "uint256",
          "name": "id",
          "type": "uint256"
        }
      ],
      "name": "balanceOf",
      "outputs": [
        {
          "internalType": "uint256",
          "name": "",
          "type": "uint256"
        }
      ],
      "stateMutability": "view",
      "type": "function",
      "constant": true
    },
    {
      "inputs": [
        {
          "internalType": "address[]",
          "name": "accounts",
          "type": "address[]"
        },
        {
          "internalType": "uint256[]",
          "name": "ids",
          "type": "uint256[]"
        }
      ],
      "name": "balanceOfBatch",
      "outputs": [
        {
          "internalType": "uint256[]",
          "name": "",
          "type": "uint256[]"
        }
      ],
      "stateMutability": "view",
      "type": "function",
      "constant": true
    },
    {
      "inputs": [
        {
          "internalType": "address",
          "name": "account",
          "type": "address"
        },
        {
          "internalType": "uint256",
          "name": "id",
          "type": "uint256"
        },
        {
          "internalType": "uint256",
          "name": "value",
          "type": "uint256"
        }
      ],
      "name": "burn",
      "outputs": [],
      "stateMutability": "nonpayable",
      "type": "function"
    },
    {
      "inputs": [
        {
          "internalType": "address",
          "name": "account",
          "type": "address"
        },
        {
          "internalType": "uint256[]",
          "name": "ids",
          "type": "uint256[]"
        },
        {
          "internalType": "uint256[]",
          "name": "values",
          "type": "uint256[]"
        }
      ],
      "name": "burnBatch",
      "outputs": [],
      "stateMutability": "nonpayable",
      "type": "function"
    },
    {
      "inputs": [
        {
          "internalType": "uint256",
          "name": "id",
          "type": "uint256"
        }
      ],
      "name": "exists",
      "outputs": [
        {
          "internalType": "bool",
          "name": "",
          "type": "bool"
        }
      ],
      "stateMutability": "view",
      "type": "function",
      "constant": true
    },
    {
      "inputs": [
        {
          "internalType": "address",
          "name": "account",
          "type": "address"
        },
        {
          "internalType": "address",
          "name": "operator",
          "type": "address"
        }
      ],
      "name": "isApprovedForAll",
      "outputs": [
        {
          "internalType": "bool",
          "name": "",
          "type": "bool"
        }
      ],
      "stateMutability": "view",
      "type": "function",
      "constant": true
    },
    {
      "inputs": [],
      "name": "maxId",
      "outputs": [
        {
          "internalType": "uint8",
          "name": "",
          "type": "uint8"
        }
      ],
      "stateMutability": "view",
      "type": "function",
      "constant": true
    },
    {
      "inputs": [
        {
          "internalType": "uint256",
          "name": "",
          "type": "uint256"
        }
      ],
      "name": "mintPrice",
      "outputs": [
        {
          "internalType": "uint256",
          "name": "",
          "type": "uint256"
        }
      ],
      "stateMutability": "view",
      "type": "function",
      "constant": true
    },
    {
      "inputs": [],
      "name": "name",
      "outputs": [
        {
          "internalType": "string",
          "name": "",
          "type": "string"
        }
      ],
      "stateMutability": "view",
      "type": "function",
      "constant": true
    },
    {
      "inputs": [],
      "name": "owner",
      "outputs": [
        {
          "internalType": "address",
          "name": "",
          "type": "address"
        }
      ],
      "stateMutability": "view",
      "type": "function",
      "constant": true
    },
    {
      "inputs": [],
      "name": "paused",
      "outputs": [
        {
          "internalType": "bool",
          "name": "",
          "type": "bool"
        }
      ],
      "stateMutability": "view",
      "type": "function",
      "constant": true
    },
    {
      "inputs": [],
      "name": "renounceOwnership",
      "outputs": [],
      "stateMutability": "nonpayable",
      "type": "function"
    },
    {
      "inputs": [
        {
          "internalType": "address",
          "name": "operator",
          "type": "address"
        },
        {
          "internalType": "bool",
          "name": "approved",
          "type": "bool"
        }
      ],
      "name": "setApprovalForAll",
      "outputs": [],
      "stateMutability": "nonpayable",
      "type": "function"
    },
    {
      "inputs": [],
      "name": "symbol",
      "outputs": [
        {
          "internalType": "string",
          "name": "",
          "type": "string"
        }
      ],
      "stateMutability": "view",
      "type": "function",
      "constant": true
    },
    {
      "inputs": [
        {
          "internalType": "uint256",
          "name": "id",
          "type": "uint256"
        }
      ],
      "name": "totalSupply",
      "outputs": [
        {
          "internalType": "uint256",
          "name": "",
          "type": "uint256"
        }
      ],
      "stateMutability": "view",
      "type": "function",
      "constant": true
    },
    {
      "inputs": [
        {
          "internalType": "address",
          "name": "newOwner",
          "type": "address"
        }
      ],
      "name": "transferOwnership",
      "outputs": [],
      "stateMutability": "nonpayable",
      "type": "function"
    },
    {
      "inputs": [],
      "name": "pause",
      "outputs": [],
      "stateMutability": "nonpayable",
      "type": "function"
    },
    {
      "inputs": [],
      "name": "unpause",
      "outputs": [],
      "stateMutability": "nonpayable",
      "type": "function"
    },
    {
      "inputs": [
        {
          "internalType": "uint256",
          "name": "mintPrice_",
          "type": "uint256"
        }
      ],
      "name": "incrementMaxId",
      "outputs": [],
      "stateMutability": "nonpayable",
      "type": "function"
    },
    {
      "inputs": [
        {
          "internalType": "uint256",
          "name": "tokenId_",
          "type": "uint256"
        },
        {
          "internalType": "uint256",
          "name": "newMintPrice",
          "type": "uint256"
        }
      ],
      "name": "changeMintPriceOfTokenId",
      "outputs": [],
      "stateMutability": "nonpayable",
      "type": "function"
    },
    {
      "inputs": [
        {
          "internalType": "string",
          "name": "_uri",
          "type": "string"
        }
      ],
      "name": "setURI",
      "outputs": [],
      "stateMutability": "nonpayable",
      "type": "function"
    },
    {
      "inputs": [
        {
          "internalType": "uint256",
          "name": "tokenId",
          "type": "uint256"
        }
      ],
      "name": "uri",
      "outputs": [
        {
          "internalType": "string",
          "name": "",
          "type": "string"
        }
      ],
      "stateMutability": "view",
      "type": "function",
      "constant": true
    },
    {
      "inputs": [
        {
          "internalType": "address",
          "name": "to_",
          "type": "address"
        },
        {
          "internalType": "uint64",
          "name": "tokenId_",
          "type": "uint64"
        }
      ],
      "name": "mint",
      "outputs": [],
      "stateMutability": "payable",
      "type": "function",
      "payable": true
    },
    {
      "inputs": [
        {
          "internalType": "address",
          "name": "minter",
          "type": "address"
        },
        {
          "internalType": "uint64",
          "name": "tokenId_",
          "type": "uint64"
        }
      ],
      "name": "checkIfMinted",
      "outputs": [
        {
          "internalType": "bool",
          "name": "",
          "type": "bool"
        }
      ],
      "stateMutability": "view",
      "type": "function",
      "constant": true
    },
    {
      "inputs": [
        {
          "internalType": "address",
          "name": "from",
          "type": "address"
        },
        {
          "internalType": "address",
          "name": "to",
          "type": "address"
        },
        {
          "internalType": "uint256",
          "name": "id",
          "type": "uint256"
        },
        {
          "internalType": "uint256",
          "name": "amount",
          "type": "uint256"
        },
        {
          "internalType": "bytes",
          "name": "data",
          "type": "bytes"
        }
      ],
      "name": "safeTransferFrom",
      "outputs": [],
      "stateMutability": "nonpayable",
      "type": "function"
    },
    {
      "inputs": [
        {
          "internalType": "address",
          "name": "from",
          "type": "address"
        },
        {
          "internalType": "address",
          "name": "to",
          "type": "address"
        },
        {
          "internalType": "uint256[]",
          "name": "ids",
          "type": "uint256[]"
        },
        {
          "internalType": "uint256[]",
          "name": "amounts",
          "type": "uint256[]"
        },
        {
          "internalType": "bytes",
          "name": "data",
          "type": "bytes"
        }
      ],
      "name": "safeBatchTransferFrom",
      "outputs": [],
      "stateMutability": "nonpayable",
      "type": "function"
    },
    {
      "inputs": [
        {
          "internalType": "bytes4",
          "name": "interfaceId",
          "type": "bytes4"
        }
      ],
      "name": "supportsInterface",
      "outputs": [
        {
          "internalType": "bool",
          "name": "",
          "type": "bool"
        }
      ],
      "stateMutability": "view",
      "type": "function",
      "constant": true
    }
  ],
  "bytecode": "0x6080604052600a805461ff0019166101001790553480156200002057600080fd5b50604051620031b8380380620031b883398101604081905262000043916200033e565b826200004f33620000a9565b6200005a81620000f9565b506004805460ff191690556008620000738682620004a0565b506009620000828582620004a0565b50600a805460ff191660ff84161790556200009e82826200010b565b5050505050620005d6565b600080546001600160a01b038381166001600160a01b0319831681178455604051919092169283917f8be0079c531659141344cd1fd0a4f28419497f9722a3daafe3b4186f6b6457e09190a35050565b6003620001078282620004a0565b5050565b80516200011a83600162000582565b60ff16146200017a5760405162461bcd60e51b815260206004820152602260248201527f47414e66743a204944732f4d696e74436f7374206172697479206d69736d61746044820152610c6d60f31b606482015260840160405180910390fd5b60005b6200018a83600162000582565b60ff16811015620001db57818181518110620001aa57620001aa620005a4565b6020908102919091018101516000838152600690925260409091205580620001d281620005ba565b9150506200017d565b505050565b634e487b7160e01b600052604160045260246000fd5b604051601f8201601f191681016001600160401b0381118282101715620002215762000221620001e0565b604052919050565b600082601f8301126200023b57600080fd5b81516001600160401b03811115620002575762000257620001e0565b60206200026d601f8301601f19168201620001f6565b82815285828487010111156200028257600080fd5b60005b83811015620002a257858101830151828201840152820162000285565b506000928101909101919091529392505050565b600082601f830112620002c857600080fd5b815160206001600160401b03821115620002e657620002e6620001e0565b8160051b620002f7828201620001f6565b92835284810182019282810190878511156200031257600080fd5b83870192505b84831015620003335782518252918301919083019062000318565b979650505050505050565b600080600080600060a086880312156200035757600080fd5b85516001600160401b03808211156200036f57600080fd5b6200037d89838a0162000229565b965060208801519150808211156200039457600080fd5b620003a289838a0162000229565b95506040880151915080821115620003b957600080fd5b620003c789838a0162000229565b94506060880151915060ff82168214620003e057600080fd5b608088015191935080821115620003f657600080fd5b506200040588828901620002b6565b9150509295509295909350565b600181811c908216806200042757607f821691505b6020821081036200044857634e487b7160e01b600052602260045260246000fd5b50919050565b601f821115620001db57600081815260208120601f850160051c81016020861015620004775750805b601f850160051c820191505b81811015620004985782815560010162000483565b505050505050565b81516001600160401b03811115620004bc57620004bc620001e0565b620004d481620004cd845462000412565b846200044e565b602080601f8311600181146200050c5760008415620004f35750858301515b600019600386901b1c1916600185901b17855562000498565b600085815260208120601f198616915b828110156200053d578886015182559484019460019091019084016200051c565b50858210156200055c5787850151600019600388901b60f8161c191681555b5050505050600190811b01905550565b634e487b7160e01b600052601160045260246000fd5b60ff81811683821601908111156200059e576200059e6200056c565b92915050565b634e487b7160e01b600052603260045260246000fd5b600060018201620005cf57620005cf6200056c565b5060010190565b612bd280620005e66000396000f3fe60806040526004361061019b5760003560e01c8063715018a6116100ec578063c5ea3c651161008a578063eefc433c11610064578063eefc433c1461050a578063f242432a1461052a578063f2fde38b1461054a578063f5298aca1461056a57600080fd5b8063c5ea3c6514610468578063e6a72acf14610494578063e985e9c5146104c157600080fd5b80638da5cb5b116100c65780638da5cb5b146103de57806395d89b4114610406578063a22cb4651461041b578063bd85b0391461043b57600080fd5b8063715018a61461039457806379d433d4146103a95780638456cb59146103c957600080fd5b80632893c5b0116101595780634e1273f4116101335780634e1273f4146103005780634f558e791461032d5780635c975abb1461035c5780636b20c4541461037457600080fd5b80632893c5b0146102b85780632eb2c2d6146102cb5780633f4ba83a146102eb57600080fd5b8062fdd58e146101a057806301ffc9a7146101d357806302fe53051461020357806306fdde03146102255780630e89341c146102475780630efc94ab14610267575b600080fd5b3480156101ac57600080fd5b506101c06101bb366004611f81565b61058a565b6040519081526020015b60405180910390f35b3480156101df57600080fd5b506101f36101ee366004611fc1565b610625565b60405190151581526020016101ca565b34801561020f57600080fd5b5061022361021e366004612084565b610630565b005b34801561023157600080fd5b5061023a6106dd565b6040516101ca9190612124565b34801561025357600080fd5b5061023a610262366004612137565b61076b565b34801561027357600080fd5b506101f3610282366004612150565b6001600160a01b03821660009081526007602090815260408083206001600160401b038516845290915290205460ff1692915050565b6102236102c6366004612150565b610822565b3480156102d757600080fd5b506102236102e6366004612247565b610af5565b3480156102f757600080fd5b50610223610b69565b34801561030c57600080fd5b5061032061031b3660046122f0565b610b7b565b6040516101ca91906123f5565b34801561033957600080fd5b506101f3610348366004612137565b600090815260056020526040902054151590565b34801561036857600080fd5b5060045460ff166101f3565b34801561038057600080fd5b5061022361038f366004612408565b610ca4565b3480156103a057600080fd5b50610223610cec565b3480156103b557600080fd5b506102236103c436600461247b565b610cfe565b3480156103d557600080fd5b50610223610d9b565b3480156103ea57600080fd5b506000546040516001600160a01b0390911681526020016101ca565b34801561041257600080fd5b5061023a610dab565b34801561042757600080fd5b5061022361043636600461249d565b610db8565b34801561044757600080fd5b506101c0610456366004612137565b60009081526005602052604090205490565b34801561047457600080fd5b50600a546104829060ff1681565b60405160ff90911681526020016101ca565b3480156104a057600080fd5b506101c06104af366004612137565b60066020526000908152604090205481565b3480156104cd57600080fd5b506101f36104dc3660046124ce565b6001600160a01b03918216600090815260026020908152604080832093909416825291909152205460ff1690565b34801561051657600080fd5b50610223610525366004612137565b610dc7565b34801561053657600080fd5b50610223610545366004612501565b610e15565b34801561055657600080fd5b50610223610565366004612565565b610e82565b34801561057657600080fd5b50610223610585366004612580565b610ef8565b60006001600160a01b0383166105fa5760405162461bcd60e51b815260206004820152602a60248201527f455243313135353a2061646472657373207a65726f206973206e6f742061207660448201526930b634b21037bbb732b960b11b60648201526084015b60405180910390fd5b5060008181526001602090815260408083206001600160a01b03861684529091529020545b92915050565b600061061f82610f3b565b610638610f8b565b8060405160200161064991906125b3565b604051602081830303815290604052805190602001206106696000610fe5565b60405160200161067991906125b3565b60405160208183030381529060405280519060200120036106d15760405162461bcd60e51b815260206004820152601260248201527147414e66743a20494e56414c49445f55524960701b60448201526064016105f1565b6106da81611079565b50565b600880546106ea906125cf565b80601f0160208091040260200160405190810160405280929190818152602001828054610716906125cf565b80156107635780601f1061073857610100808354040283529160200191610763565b820191906000526020600020905b81548152906001019060200180831161074657829003601f168201915b505050505081565b6000818152600560205260409020546060906107c95760405162461bcd60e51b815260206004820152601860248201527f47414e66743a204e4f4e4558495354454e545f544f4b454e000000000000000060448201526064016105f1565b6107d36000610fe5565b6107dc83611085565b60405180604001604052806005815260200164173539b7b760d91b81525060405160200161080c93929190612609565b6040516020818303038152906040529050919050565b61082a611117565b3460016001600160a01b0384166108835760405162461bcd60e51b815260206004820152601a60248201527f47414e66743a20416464726573732063616e6e6f74206265203000000000000060448201526064016105f1565b6001600160a01b03841633146108f85760405162461bcd60e51b815260206004820152603460248201527f47414e66743a206f6e6c79206f776e6572206f6620616368696576656d656e746044820152731031b0b71036b4b73a103a3434b9903a37b5b2b760611b60648201526084016105f1565b6001600160401b03831660009081526006602052604090205482146109715760405162461bcd60e51b815260206004820152602960248201527f47414e66743a2045746865722073656e74206973206e6f7420746865207269676044820152681a1d08185b5bdd5b9d60ba1b60648201526084016105f1565b600a5460ff166001600160401b03841611156109cf5760405162461bcd60e51b815260206004820152601d60248201527f47414e66743a20546f6b656e20696420646f65736e277420657869737400000060448201526064016105f1565b6001600160a01b03841660009081526007602090815260408083206001600160401b038716845290915290205460ff1615610a585760405162461bcd60e51b8152602060048201526024808201527f47414e66743a20546f6b656e2068617320616c7265616479206265656e206d696044820152631b9d195960e21b60648201526084016105f1565b610a8c84846001600160401b03168360ff16604051806040016040528060048152602001630307830360e41b81525061115d565b6001600160a01b03841660008181526007602090815260408083206001600160401b0388168085529252808320805460ff191660011790555160ff85169391927f25b428dfde728ccfaddad7e29e4ac23c24ed7fd1a6e3e3f91894a9a073f5dfff91a450505050565b6001600160a01b038516331480610b115750610b1185336104dc565b610b2d5760405162461bcd60e51b81526004016105f19061264c565b600a54610100900460ff1615610b555760405162461bcd60e51b81526004016105f19061269a565b610b628585858585611282565b5050505050565b610b71610f8b565b610b7961142f565b565b60608151835114610be05760405162461bcd60e51b815260206004820152602960248201527f455243313135353a206163636f756e747320616e6420696473206c656e677468604482015268040dad2e6dac2e8c6d60bb1b60648201526084016105f1565b600083516001600160401b03811115610bfb57610bfb611fe5565b604051908082528060200260200182016040528015610c24578160200160208202803683370190505b50905060005b8451811015610c9c57610c6f858281518110610c4857610c486126e7565b6020026020010151858381518110610c6257610c626126e7565b602002602001015161058a565b828281518110610c8157610c816126e7565b6020908102919091010152610c9581612713565b9050610c2a565b509392505050565b6001600160a01b038316331480610cc05750610cc083336104dc565b610cdc5760405162461bcd60e51b81526004016105f19061264c565b610ce7838383611481565b505050565b610cf4610f8b565b610b796000611621565b610d06610f8b565b6000828152600660205260409020548103610d895760405162461bcd60e51b815260206004820152603d60248201527f47414e66743a204d696e742050726963652073686f756c64206265206469666660448201527f6572656e74207468616e207468652070726576696f757320707269636500000060648201526084016105f1565b60009182526006602052604090912055565b610da3610f8b565b610b79611671565b600980546106ea906125cf565b610dc33383836116ae565b5050565b610dcf610f8b565b600a805460ff16906000610de28361272c565b82546101009290920a60ff818102199093169183160217909155600a541660009081526006602052604090209190915550565b6001600160a01b038516331480610e315750610e3185336104dc565b610e4d5760405162461bcd60e51b81526004016105f19061264c565b600a54610100900460ff1615610e755760405162461bcd60e51b81526004016105f19061269a565b610b62858585858561178e565b610e8a610f8b565b6001600160a01b038116610eef5760405162461bcd60e51b815260206004820152602660248201527f4f776e61626c653a206e6577206f776e657220697320746865207a65726f206160448201526564647265737360d01b60648201526084016105f1565b6106da81611621565b6001600160a01b038316331480610f145750610f1483336104dc565b610f305760405162461bcd60e51b81526004016105f19061264c565b610ce78383836118ca565b60006001600160e01b03198216636cdb3d1360e11b1480610f6c57506001600160e01b031982166303a24d0760e21b145b8061061f57506301ffc9a760e01b6001600160e01b031983161461061f565b6000546001600160a01b03163314610b795760405162461bcd60e51b815260206004820181905260248201527f4f776e61626c653a2063616c6c6572206973206e6f7420746865206f776e657260448201526064016105f1565b606060038054610ff4906125cf565b80601f0160208091040260200160405190810160405280929190818152602001828054611020906125cf565b801561106d5780601f106110425761010080835404028352916020019161106d565b820191906000526020600020905b81548152906001019060200180831161105057829003601f168201915b50505050509050919050565b6003610dc38282612791565b60606000611092836119e6565b60010190506000816001600160401b038111156110b1576110b1611fe5565b6040519080825280601f01601f1916602001820160405280156110db576020820181803683370190505b5090508181016020015b600019016f181899199a1a9b1b9c1cb0b131b232b360811b600a86061a8153600a85049450846110e557509392505050565b60045460ff1615610b795760405162461bcd60e51b815260206004820152601060248201526f14185d5cd8589b194e881c185d5cd95960821b60448201526064016105f1565b6001600160a01b0384166111bd5760405162461bcd60e51b815260206004820152602160248201527f455243313135353a206d696e7420746f20746865207a65726f206164647265736044820152607360f81b60648201526084016105f1565b3360006111c985611abe565b905060006111d685611abe565b90506111e783600089858589611b09565b60008681526001602090815260408083206001600160a01b038b16845290915281208054879290611219908490612850565b909155505060408051878152602081018790526001600160a01b03808a1692600092918716917fc3d58168c5ae7397731d063d5bbf3d657854427343f4c083240f7aacaa2d0f62910160405180910390a461127983600089898989611b17565b50505050505050565b81518351146112a35760405162461bcd60e51b81526004016105f190612863565b6001600160a01b0384166112c95760405162461bcd60e51b81526004016105f1906128ab565b336112d8818787878787611b09565b60005b84518110156113c15760008582815181106112f8576112f86126e7565b602002602001015190506000858381518110611316576113166126e7565b60209081029190910181015160008481526001835260408082206001600160a01b038e1683529093529190912054909150818110156113675760405162461bcd60e51b81526004016105f1906128f0565b60008381526001602090815260408083206001600160a01b038e8116855292528083208585039055908b168252812080548492906113a6908490612850565b92505081905550505050806113ba90612713565b90506112db565b50846001600160a01b0316866001600160a01b0316826001600160a01b03167f4a39dc06d4c0dbc64b70af90fd698a233a518aa5d07e595d983b8c0526c8f7fb878760405161141192919061293a565b60405180910390a4611427818787878787611c72565b505050505050565b611437611d2d565b6004805460ff191690557f5db9ee0a495bf2e6ff9c91a7834c1ba4fdd244a5e8aa4e537bd38aeae4b073aa335b6040516001600160a01b03909116815260200160405180910390a1565b6001600160a01b0383166114a75760405162461bcd60e51b81526004016105f190612968565b80518251146114c85760405162461bcd60e51b81526004016105f190612863565b60003390506114eb81856000868660405180602001604052806000815250611b09565b60005b83518110156115b357600084828151811061150b5761150b6126e7565b602002602001015190506000848381518110611529576115296126e7565b60209081029190910181015160008481526001835260408082206001600160a01b038c16835290935291909120549091508181101561157a5760405162461bcd60e51b81526004016105f1906129ab565b60009283526001602090815260408085206001600160a01b038b16865290915290922091039055806115ab81612713565b9150506114ee565b5060006001600160a01b0316846001600160a01b0316826001600160a01b03167f4a39dc06d4c0dbc64b70af90fd698a233a518aa5d07e595d983b8c0526c8f7fb868660405161160492919061293a565b60405180910390a460408051602081019091526000905250505050565b600080546001600160a01b038381166001600160a01b0319831681178455604051919092169283917f8be0079c531659141344cd1fd0a4f28419497f9722a3daafe3b4186f6b6457e09190a35050565b611679611117565b6004805460ff191660011790557f62e78cea01bee320cd4e420270b5ea74000d11b0c9f74754ebdbfc544b05a2586114643390565b816001600160a01b0316836001600160a01b0316036117215760405162461bcd60e51b815260206004820152602960248201527f455243313135353a2073657474696e6720617070726f76616c20737461747573604482015268103337b91039b2b63360b91b60648201526084016105f1565b6001600160a01b03838116600081815260026020908152604080832094871680845294825291829020805460ff191686151590811790915591519182527f17307eab39ab6107e8899845ad3d59bd9653f200f220920489ca2b5937696c31910160405180910390a3505050565b6001600160a01b0384166117b45760405162461bcd60e51b81526004016105f1906128ab565b3360006117c085611abe565b905060006117cd85611abe565b90506117dd838989858589611b09565b60008681526001602090815260408083206001600160a01b038c168452909152902054858110156118205760405162461bcd60e51b81526004016105f1906128f0565b60008781526001602090815260408083206001600160a01b038d8116855292528083208985039055908a1682528120805488929061185f908490612850565b909155505060408051888152602081018890526001600160a01b03808b16928c821692918816917fc3d58168c5ae7397731d063d5bbf3d657854427343f4c083240f7aacaa2d0f62910160405180910390a46118bf848a8a8a8a8a611b17565b505050505050505050565b6001600160a01b0383166118f05760405162461bcd60e51b81526004016105f190612968565b3360006118fc84611abe565b9050600061190984611abe565b905061192983876000858560405180602001604052806000815250611b09565b60008581526001602090815260408083206001600160a01b038a1684529091529020548481101561196c5760405162461bcd60e51b81526004016105f1906129ab565b60008681526001602090815260408083206001600160a01b038b81168086529184528285208a8703905582518b81529384018a90529092908816917fc3d58168c5ae7397731d063d5bbf3d657854427343f4c083240f7aacaa2d0f62910160405180910390a4604080516020810190915260009052611279565b60008072184f03e93ff9f4daa797ed6e38ed64bf6a1f0160401b8310611a255772184f03e93ff9f4daa797ed6e38ed64bf6a1f0160401b830492506040015b6d04ee2d6d415b85acef81000000008310611a51576d04ee2d6d415b85acef8100000000830492506020015b662386f26fc100008310611a6f57662386f26fc10000830492506010015b6305f5e1008310611a87576305f5e100830492506008015b6127108310611a9b57612710830492506004015b60648310611aad576064830492506002015b600a831061061f5760010192915050565b60408051600180825281830190925260609160009190602080830190803683370190505090508281600081518110611af857611af86126e7565b602090810291909101015292915050565b611427868686868686611d76565b6001600160a01b0384163b156114275760405163f23a6e6160e01b81526001600160a01b0385169063f23a6e6190611b5b90899089908890889088906004016129ef565b6020604051808303816000875af1925050508015611b96575060408051601f3d908101601f19168201909252611b9391810190612a34565b60015b611c4257611ba2612a51565b806308c379a003611bdb5750611bb6612a6d565b80611bc15750611bdd565b8060405162461bcd60e51b81526004016105f19190612124565b505b60405162461bcd60e51b815260206004820152603460248201527f455243313135353a207472616e7366657220746f206e6f6e2d455243313135356044820152732932b1b2b4bb32b91034b6b83632b6b2b73a32b960611b60648201526084016105f1565b6001600160e01b0319811663f23a6e6160e01b146112795760405162461bcd60e51b81526004016105f190612af6565b6001600160a01b0384163b156114275760405163bc197c8160e01b81526001600160a01b0385169063bc197c8190611cb69089908990889088908890600401612b3e565b6020604051808303816000875af1925050508015611cf1575060408051601f3d908101601f19168201909252611cee91810190612a34565b60015b611cfd57611ba2612a51565b6001600160e01b0319811663bc197c8160e01b146112795760405162461bcd60e51b81526004016105f190612af6565b60045460ff16610b795760405162461bcd60e51b815260206004820152601460248201527314185d5cd8589b194e881b9bdd081c185d5cd95960621b60448201526064016105f1565b611d84868686868686611efd565b6001600160a01b038516611e0b5760005b8351811015611e0957828181518110611db057611db06126e7565b602002602001015160056000868481518110611dce57611dce6126e7565b602002602001015181526020019081526020016000206000828254611df39190612850565b90915550611e02905081612713565b9050611d95565b505b6001600160a01b0384166114275760005b8351811015611279576000848281518110611e3957611e396126e7565b602002602001015190506000848381518110611e5757611e576126e7565b6020026020010151905060006005600084815260200190815260200160002054905081811015611eda5760405162461bcd60e51b815260206004820152602860248201527f455243313135353a206275726e20616d6f756e74206578636565647320746f74604482015267616c537570706c7960c01b60648201526084016105f1565b60009283526005602052604090922091039055611ef681612713565b9050611e1c565b60045460ff16156114275760405162461bcd60e51b815260206004820152602c60248201527f455243313135355061757361626c653a20746f6b656e207472616e736665722060448201526b1dda1a5b19481c185d5cd95960a21b60648201526084016105f1565b80356001600160a01b0381168114611f7c57600080fd5b919050565b60008060408385031215611f9457600080fd5b611f9d83611f65565b946020939093013593505050565b6001600160e01b0319811681146106da57600080fd5b600060208284031215611fd357600080fd5b8135611fde81611fab565b9392505050565b634e487b7160e01b600052604160045260246000fd5b601f8201601f191681016001600160401b038111828210171561202057612020611fe5565b6040525050565b60006001600160401b0383111561204057612040611fe5565b604051612057601f8501601f191660200182611ffb565b80915083815284848401111561206c57600080fd5b83836020830137600060208583010152509392505050565b60006020828403121561209657600080fd5b81356001600160401b038111156120ac57600080fd5b8201601f810184136120bd57600080fd5b6120cc84823560208401612027565b949350505050565b60005b838110156120ef5781810151838201526020016120d7565b50506000910152565b600081518084526121108160208601602086016120d4565b601f01601f19169290920160200192915050565b602081526000611fde60208301846120f8565b60006020828403121561214957600080fd5b5035919050565b6000806040838503121561216357600080fd5b61216c83611f65565b915060208301356001600160401b038116811461218857600080fd5b809150509250929050565b60006001600160401b038211156121ac576121ac611fe5565b5060051b60200190565b600082601f8301126121c757600080fd5b813560206121d482612193565b6040516121e18282611ffb565b83815260059390931b850182019282810191508684111561220157600080fd5b8286015b8481101561221c5780358352918301918301612205565b509695505050505050565b600082601f83011261223857600080fd5b611fde83833560208501612027565b600080600080600060a0868803121561225f57600080fd5b61226886611f65565b945061227660208701611f65565b935060408601356001600160401b038082111561229257600080fd5b61229e89838a016121b6565b945060608801359150808211156122b457600080fd5b6122c089838a016121b6565b935060808801359150808211156122d657600080fd5b506122e388828901612227565b9150509295509295909350565b6000806040838503121561230357600080fd5b82356001600160401b038082111561231a57600080fd5b818501915085601f83011261232e57600080fd5b8135602061233b82612193565b6040516123488282611ffb565b83815260059390931b850182019282810191508984111561236857600080fd5b948201945b8386101561238d5761237e86611f65565b8252948201949082019061236d565b965050860135925050808211156123a357600080fd5b506123b0858286016121b6565b9150509250929050565b600081518084526020808501945080840160005b838110156123ea578151875295820195908201906001016123ce565b509495945050505050565b602081526000611fde60208301846123ba565b60008060006060848603121561241d57600080fd5b61242684611f65565b925060208401356001600160401b038082111561244257600080fd5b61244e878388016121b6565b9350604086013591508082111561246457600080fd5b50612471868287016121b6565b9150509250925092565b6000806040838503121561248e57600080fd5b50508035926020909101359150565b600080604083850312156124b057600080fd5b6124b983611f65565b91506020830135801515811461218857600080fd5b600080604083850312156124e157600080fd5b6124ea83611f65565b91506124f860208401611f65565b90509250929050565b600080600080600060a0868803121561251957600080fd5b61252286611f65565b945061253060208701611f65565b9350604086013592506060860135915060808601356001600160401b0381111561255957600080fd5b6122e388828901612227565b60006020828403121561257757600080fd5b611fde82611f65565b60008060006060848603121561259557600080fd5b61259e84611f65565b95602085013595506040909401359392505050565b600082516125c58184602087016120d4565b9190910192915050565b600181811c908216806125e357607f821691505b60208210810361260357634e487b7160e01b600052602260045260246000fd5b50919050565b6000845161261b8184602089016120d4565b84519083019061262f8183602089016120d4565b84519101906126428183602088016120d4565b0195945050505050565b6020808252602e908201527f455243313135353a2063616c6c6572206973206e6f7420746f6b656e206f776e60408201526d195c881bdc88185c1c1c9bdd995960921b606082015260800190565b6020808252602d908201527f47414e66743a20536f756c64426f6e6420546f6b656e7320617265206e6f6e2060408201526c7472616e736665727261626c6560981b606082015260800190565b634e487b7160e01b600052603260045260246000fd5b634e487b7160e01b600052601160045260246000fd5b600060018201612725576127256126fd565b5060010190565b600060ff821660ff8103612742576127426126fd565b60010192915050565b601f821115610ce757600081815260208120601f850160051c810160208610156127725750805b601f850160051c820191505b818110156114275782815560010161277e565b81516001600160401b038111156127aa576127aa611fe5565b6127be816127b884546125cf565b8461274b565b602080601f8311600181146127f357600084156127db5750858301515b600019600386901b1c1916600185901b178555611427565b600085815260208120601f198616915b8281101561282257888601518255948401946001909101908401612803565b50858210156128405787850151600019600388901b60f8161c191681555b5050505050600190811b01905550565b8082018082111561061f5761061f6126fd565b60208082526028908201527f455243313135353a2069647320616e6420616d6f756e7473206c656e677468206040820152670dad2e6dac2e8c6d60c31b606082015260800190565b60208082526025908201527f455243313135353a207472616e7366657220746f20746865207a65726f206164604082015264647265737360d81b606082015260800190565b6020808252602a908201527f455243313135353a20696e73756666696369656e742062616c616e636520666f60408201526939103a3930b739b332b960b11b606082015260800190565b60408152600061294d60408301856123ba565b828103602084015261295f81856123ba565b95945050505050565b60208082526023908201527f455243313135353a206275726e2066726f6d20746865207a65726f206164647260408201526265737360e81b606082015260800190565b60208082526024908201527f455243313135353a206275726e20616d6f756e7420657863656564732062616c604082015263616e636560e01b606082015260800190565b6001600160a01b03868116825285166020820152604081018490526060810183905260a060808201819052600090612a29908301846120f8565b979650505050505050565b600060208284031215612a4657600080fd5b8151611fde81611fab565b600060033d1115612a6a5760046000803e5060005160e01c5b90565b600060443d1015612a7b5790565b6040516003193d81016004833e81513d6001600160401b038160248401118184111715612aaa57505050505090565b8285019150815181811115612ac25750505050505090565b843d8701016020828501011115612adc5750505050505090565b612aeb60208286010187611ffb565b509095945050505050565b60208082526028908201527f455243313135353a204552433131353552656365697665722072656a656374656040820152676420746f6b656e7360c01b606082015260800190565b6001600160a01b0386811682528516602082015260a060408201819052600090612b6a908301866123ba565b8281036060840152612b7c81866123ba565b90508281036080840152612b9081856120f8565b9897505050505050505056fea264697066735822122009e39a02277b697435b50beef42af3882c9279adbf10135f82b3d91bd6d6b88364736f6c63430008110033",
  "immutableReferences": {},
  "source": "// SPDX-License-Identifier: MIT\r\npragma solidity ^0.8.0;\r\n\r\n/// @notice access control\r\nimport \"@openzeppelin/contracts/access/Ownable.sol\";\r\n\r\n/// @notice libraries & utils\r\nimport \"@openzeppelin/contracts/utils/Strings.sol\";\r\n\r\n/// @notice ERC1155, extensions & interfaces\r\nimport \"@openzeppelin/contracts/token/ERC1155/extensions/ERC1155Supply.sol\";\r\nimport \"@openzeppelin/contracts/token/ERC1155/extensions/ERC1155Pausable.sol\";\r\nimport \"@openzeppelin/contracts/token/ERC1155/extensions/ERC1155Burnable.sol\";\r\n\r\n/**s\r\n * @title ERC1155 Token Contract for Github Achievements NFT Project\r\n * @notice This contract is meant to serve for both Semi- and Non- fungible tokens as part of the  Github Achievements NFT project\r\n * @author ghadimhawej.eth | bitspent.eth\r\n **/\r\ncontract GANft is Ownable, ERC1155Pausable, ERC1155Supply, ERC1155Burnable {\r\n    /// @notice using strings for uints (token ID encoding)\r\n    using Strings for uint256;\r\n\r\n    /// @notice using Address for addresses extended functionality\r\n    using Address for address;\r\n\r\n    /// @notice the max supply for SFT and NFT, metadata file type\r\n    string private constant METADATA_EXTENTION = \".json\";\r\n\r\n    /// @notice The rate of minting per tokenId\r\n    mapping(uint256 => uint256) public mintPrice;\r\n\r\n    /// @notice Mapping minted token Ids by address\r\n    mapping(address => mapping(uint64 => bool)) hasMintedToken;\r\n\r\n    /// @notice Contract Token name and symbol\r\n    string public name;\r\n    string public symbol;\r\n\r\n    /// @notice Max token Id that can be minted;\r\n    uint8 public maxId;\r\n\r\n    /// @notice is soulbound token\r\n    bool isSoulBound = true;\r\n\r\n    /// @notice Event triggered when minting occurs\r\n    event Minted(\r\n        address indexed account,\r\n        uint256 indexed tokenId,\r\n        uint256 indexed amount\r\n    );\r\n\r\n    /**\r\n     * @notice constructor\r\n     * @param name_ the token name\r\n     * @param symbol_ the token symbol\r\n     * @param uri_ token metadata URI\r\n     **/\r\n    constructor(\r\n        string memory name_,\r\n        string memory symbol_,\r\n        string memory uri_,\r\n        uint8 maxId_,\r\n        uint256[] memory mintCostPerTokenId_\r\n    ) ERC1155(uri_) {\r\n        name = name_;\r\n        symbol = symbol_;\r\n        maxId = maxId_;\r\n        _initialAddTokens(maxId_, mintCostPerTokenId_);\r\n    }\r\n\r\n    /// @notice pauses the contract (minting and transfers)\r\n    function pause() public virtual onlyOwner {\r\n        _pause();\r\n    }\r\n\r\n    /// @notice unpauses the contract (minting and transfers)\r\n    function unpause() public virtual onlyOwner {\r\n        _unpause();\r\n    }\r\n\r\n    /// @notice change max token Id\r\n    function incrementMaxId(uint256 mintPrice_) public onlyOwner {\r\n        maxId++;\r\n        mintPrice[maxId] = mintPrice_;\r\n    }\r\n\r\n    /**\r\n     * @notice changes the mint price of an already existing token ID\r\n     * @param tokenId_ id of token\r\n     * @param tokenId_ new mint price of specified token ID\r\n     **/\r\n    function changeMintPriceOfTokenId(uint256 tokenId_, uint256 newMintPrice)\r\n        public\r\n        onlyOwner\r\n    {\r\n        require(\r\n            newMintPrice != mintPrice[tokenId_],\r\n            \"GANft: Mint Price should be different than the previous price\"\r\n        );\r\n        mintPrice[tokenId_] = newMintPrice;\r\n    }\r\n\r\n    /**\r\n     * @notice sets the base URI for token types\r\n     * @param _uri token metadata URI\r\n     **/\r\n    function setURI(string memory _uri) external onlyOwner {\r\n        require(\r\n            keccak256(abi.encodePacked(super.uri(0))) !=\r\n                keccak256(abi.encodePacked(_uri)),\r\n            \"GANft: INVALID_URI\"\r\n        );\r\n        _setURI(_uri);\r\n    }\r\n\r\n    /**\r\n     * @notice gets the URI per token ID\r\n     * @param tokenId token type ID to return proper URI\r\n     **/\r\n    function uri(uint256 tokenId)\r\n        public\r\n        view\r\n        virtual\r\n        override\r\n        returns (string memory)\r\n    {\r\n        require(exists(tokenId), \"GANft: NONEXISTENT_TOKEN\");\r\n        return\r\n            string(\r\n                abi.encodePacked(\r\n                    super.uri(0),\r\n                    tokenId.toString(),\r\n                    METADATA_EXTENTION\r\n                )\r\n            );\r\n    }\r\n\r\n    /**\r\n     * @notice mints tokens based on parameters\r\n     * @param to_ address of the user minting\r\n     * @param tokenId_ id of token to be minted\r\n     **/\r\n    function mint(address to_, uint64 tokenId_) public payable whenNotPaused {\r\n        uint256 received = msg.value;\r\n        uint8 amount_ = 1;\r\n        require(to_ != address(0), \"GANft: Address cannot be 0\");\r\n        require(\r\n            to_ == msg.sender,\r\n            \"GANft: only owner of achievement can mint this token\"\r\n        );\r\n        require(\r\n            received == mintPrice[tokenId_],\r\n            \"GANft: Ether sent is not the right amount\"\r\n        );\r\n        require(tokenId_ <= maxId, \"GANft: Token id doesn't exist\");\r\n\r\n        require(\r\n            !hasMintedToken[to_][tokenId_],\r\n            \"GANft: Token has already been minted\"\r\n        );\r\n\r\n        _mint(to_, tokenId_, amount_, \"0x00\");\r\n        hasMintedToken[to_][tokenId_] = true;\r\n        emit Minted(to_, tokenId_, amount_);\r\n    }\r\n\r\n    /**\r\n     * @notice checks if an address minted the token\r\n     * @param minter address user minting nft\r\n     * @param tokenId_ token to check for\r\n     **/\r\n    function checkIfMinted(address minter, uint64 tokenId_)\r\n        public\r\n        view\r\n        returns (bool)\r\n    {\r\n        return hasMintedToken[minter][tokenId_];\r\n    }\r\n\r\n    /**\r\n     * @dev See {IERC1155-safeTransferFrom}.\r\n     */\r\n    function safeTransferFrom(\r\n        address from,\r\n        address to,\r\n        uint256 id,\r\n        uint256 amount,\r\n        bytes memory data\r\n    ) public virtual override {\r\n        require(\r\n            from == _msgSender() || isApprovedForAll(from, _msgSender()),\r\n            \"ERC1155: caller is not token owner or approved\"\r\n        );\r\n        require(\r\n            isSoulBound == false,\r\n            \"GANft: SouldBond Tokens are non transferrable\"\r\n        );\r\n        _safeTransferFrom(from, to, id, amount, data);\r\n    }\r\n\r\n    /**\r\n     * @dev See {IERC1155-safeBatchTransferFrom}.\r\n     */\r\n    function safeBatchTransferFrom(\r\n        address from,\r\n        address to,\r\n        uint256[] memory ids,\r\n        uint256[] memory amounts,\r\n        bytes memory data\r\n    ) public virtual override {\r\n        require(\r\n            from == _msgSender() || isApprovedForAll(from, _msgSender()),\r\n            \"ERC1155: caller is not token owner or approved\"\r\n        );\r\n        require(\r\n            isSoulBound == false,\r\n            \"GANft: SouldBond Tokens are non transferrable\"\r\n        );\r\n        _safeBatchTransferFrom(from, to, ids, amounts, data);\r\n    }\r\n\r\n    /**\r\n     * @notice add initial token ids with their respective supplies\r\n     * @param maxId_ list of token ids to be added\r\n     * @param mintCostPerTokenId_ mint price per token Id\r\n     **/\r\n    function _initialAddTokens(\r\n        uint8 maxId_,\r\n        uint256[] memory mintCostPerTokenId_\r\n    ) private {\r\n        require(\r\n            maxId_ + 1 == mintCostPerTokenId_.length,\r\n            \"GANft: IDs/MintCost arity mismatch\"\r\n        );\r\n\r\n        for (uint256 i = 0; i < maxId_ + 1; i++) {\r\n            mintPrice[i] = mintCostPerTokenId_[i];\r\n        }\r\n    }\r\n\r\n    /// @notice before token transfer hook override\r\n    function _beforeTokenTransfer(\r\n        address operator,\r\n        address from,\r\n        address to,\r\n        uint256[] memory ids,\r\n        uint256[] memory amounts,\r\n        bytes memory data\r\n    ) internal virtual override(ERC1155Pausable, ERC1155Supply, ERC1155) {\r\n        super._beforeTokenTransfer(operator, from, to, ids, amounts, data);\r\n    }\r\n\r\n    /// @notice EIP165\r\n    function supportsInterface(bytes4 interfaceId)\r\n        public\r\n        view\r\n        virtual\r\n        override(ERC1155)\r\n        returns (bool)\r\n    {\r\n        return super.supportsInterface(interfaceId);\r\n    }\r\n}\r\n",
  "sourcePath": "C:\\Users\\Ghadi\\Desktop\\Portfolio\\GANft\\contracts\\GANft.sol",
  "compiler": {
    "name": "solc",
    "version": "0.8.17+commit.8df45f5f.Emscripten.clang"
  },
  "schemaVersion": "3.4.4",
  "updatedAt": "2022-11-19T17:27:24.955Z",
  "networkType": "ethereum",
  "devdoc": {
    "author": "ghadimhawej.eth | bitspent.eth*",
    "kind": "dev",
    "methods": {
      "balanceOf(address,uint256)": {
        "details": "See {IERC1155-balanceOf}. Requirements: - `account` cannot be the zero address."
      },
      "balanceOfBatch(address[],uint256[])": {
        "details": "See {IERC1155-balanceOfBatch}. Requirements: - `accounts` and `ids` must have the same length."
      },
      "changeMintPriceOfTokenId(uint256,uint256)": {
        "params": {
          "tokenId_": "new mint price of specified token ID*"
        }
      },
      "checkIfMinted(address,uint64)": {
        "params": {
          "minter": "address user minting nft",
          "tokenId_": "token to check for*"
        }
      },
      "constructor": {
        "params": {
          "name_": "the token name",
          "symbol_": "the token symbol",
          "uri_": "token metadata URI*"
        }
      },
      "exists(uint256)": {
        "details": "Indicates whether any token exist with a given id, or not."
      },
      "isApprovedForAll(address,address)": {
        "details": "See {IERC1155-isApprovedForAll}."
      },
      "mint(address,uint64)": {
        "params": {
          "to_": "address of the user minting",
          "tokenId_": "id of token to be minted*"
        }
      },
      "owner()": {
        "details": "Returns the address of the current owner."
      },
      "paused()": {
        "details": "Returns true if the contract is paused, and false otherwise."
      },
      "renounceOwnership()": {
        "details": "Leaves the contract without owner. It will not be possible to call `onlyOwner` functions anymore. Can only be called by the current owner. NOTE: Renouncing ownership will leave the contract without an owner, thereby removing any functionality that is only available to the owner."
      },
      "safeBatchTransferFrom(address,address,uint256[],uint256[],bytes)": {
        "details": "See {IERC1155-safeBatchTransferFrom}."
      },
      "safeTransferFrom(address,address,uint256,uint256,bytes)": {
        "details": "See {IERC1155-safeTransferFrom}."
      },
      "setApprovalForAll(address,bool)": {
        "details": "See {IERC1155-setApprovalForAll}."
      },
      "setURI(string)": {
        "params": {
          "_uri": "token metadata URI*"
        }
      },
      "totalSupply(uint256)": {
        "details": "Total amount of tokens in with a given id."
      },
      "transferOwnership(address)": {
        "details": "Transfers ownership of the contract to a new account (`newOwner`). Can only be called by the current owner."
      },
      "uri(uint256)": {
        "params": {
          "tokenId": "token type ID to return proper URI*"
        }
      }
    },
    "title": "ERC1155 Token Contract for Github Achievements NFT Project",
    "version": 1
  },
  "userdoc": {
    "events": {
      "Minted(address,uint256,uint256)": {
        "notice": "Event triggered when minting occurs"
      }
    },
    "kind": "user",
    "methods": {
      "changeMintPriceOfTokenId(uint256,uint256)": {
        "notice": "changes the mint price of an already existing token ID"
      },
      "checkIfMinted(address,uint64)": {
        "notice": "checks if an address minted the token"
      },
      "constructor": {
        "notice": "constructor"
      },
      "incrementMaxId(uint256)": {
        "notice": "change max token Id"
      },
      "maxId()": {
        "notice": "Max token Id that can be minted;"
      },
      "mint(address,uint64)": {
        "notice": "mints tokens based on parameters"
      },
      "mintPrice(uint256)": {
        "notice": "The rate of minting per tokenId"
      },
      "name()": {
        "notice": "Contract Token name and symbol"
      },
      "pause()": {
        "notice": "pauses the contract (minting and transfers)"
      },
      "setURI(string)": {
        "notice": "sets the base URI for token types"
      },
      "supportsInterface(bytes4)": {
        "notice": "EIP165"
      },
      "unpause()": {
        "notice": "unpauses the contract (minting and transfers)"
      },
      "uri(uint256)": {
        "notice": "gets the URI per token ID"
      }
    },
    "notice": "sThis contract is meant to serve for both Semi- and Non- fungible tokens as part of the  Github Achievements NFT project",
    "version": 1
  }
}